{
  "contractName": "Verification",
  "abi": [
    {
      "inputs": [],
      "payable": false,
      "stateMutability": "nonpayable",
      "type": "constructor"
    },
    {
      "constant": false,
      "inputs": [
        {
          "name": "_phoneNumberHash",
          "type": "string"
        },
        {
          "name": "_licenseNumber",
          "type": "string"
        },
        {
          "name": "_licenseType",
          "type": "string"
        },
        {
          "name": "_isAdult",
          "type": "bool"
        }
      ],
      "name": "registerLicense",
      "outputs": [],
      "payable": false,
      "stateMutability": "nonpayable",
      "type": "function"
    },
    {
      "constant": true,
      "inputs": [
        {
          "name": "_phoneNumberHash",
          "type": "string"
        }
      ],
      "name": "getLicense",
      "outputs": [
        {
          "name": "",
          "type": "string"
        },
        {
          "name": "",
          "type": "string"
        },
        {
          "name": "",
          "type": "bool"
        }
      ],
      "payable": false,
      "stateMutability": "view",
      "type": "function"
    }
  ],
  "bytecode": "0x608060405234801561001057600080fd5b50336000806101000a81548173ffffffffffffffffffffffffffffffffffffffff021916908373ffffffffffffffffffffffffffffffffffffffff16021790555061090d806100606000396000f3fe608060405234801561001057600080fd5b50600436106100365760003560e01c8063d6a7b9761461003b578063f9708814146101e6575b600080fd5b6100f46004803603602081101561005157600080fd5b810190808035906020019064010000000081111561006e57600080fd5b82018360208201111561008057600080fd5b803590602001918460018302840111640100000000831117156100a257600080fd5b91908080601f016020809104026020016040519081016040528093929190818152602001838380828437600081840152601f19601f8201169050808301925050505050505091929192905050506103db565b60405180806020018060200184151515158152602001838103835286818151815260200191508051906020019080838360005b83811015610142578082015181840152602081019050610127565b50505050905090810190601f16801561016f5780820380516001836020036101000a031916815260200191505b50838103825285818151815260200191508051906020019080838360005b838110156101a857808201518184015260208101905061018d565b50505050905090810190601f1680156101d55780820380516001836020036101000a031916815260200191505b509550505050505060405180910390f35b6103d9600480360360808110156101fc57600080fd5b810190808035906020019064010000000081111561021957600080fd5b82018360208201111561022b57600080fd5b8035906020019184600183028401116401000000008311171561024d57600080fd5b91908080601f016020809104026020016040519081016040528093929190818152602001838380828437600081840152601f19601f820116905080830192505050505050509192919290803590602001906401000000008111156102b057600080fd5b8201836020820111156102c257600080fd5b803590602001918460018302840111640100000000831117156102e457600080fd5b91908080601f016020809104026020016040519081016040528093929190818152602001838380828437600081840152601f19601f8201169050808301925050505050505091929192908035906020019064010000000081111561034757600080fd5b82018360208201111561035957600080fd5b8035906020019184600183028401116401000000008311171561037b57600080fd5b91908080601f016020809104026020016040519081016040528093929190818152602001838380828437600081840152601f19601f8201169050808301925050505050505091929192908035151590602001909291905050506106f4565b005b6060806000806001856040518082805190602001908083835b6020831061041757805182526020820191506020810190506020830392506103f4565b6001836020036101000a0380198251168184511680821785525050505050509050019150509081526020016040518091039020600101805460018160011615610100020316600290049050116104d5576040517f08c379a00000000000000000000000000000000000000000000000000000000081526004018080602001828103825260158152602001807f496e76616c6964206c6963656e73654e756d626572000000000000000000000081525060200191505060405180910390fd5b6001846040518082805190602001908083835b6020831061050b57805182526020820191506020810190506020830392506104e8565b6001836020036101000a03801982511681845116808217855250505050505090500191505090815260200160405180910390206001016001856040518082805190602001908083835b602083106105775780518252602082019150602081019050602083039250610554565b6001836020036101000a03801982511681845116808217855250505050505090500191505090815260200160405180910390206002016001828054600181600116156101000203166002900480601f0160208091040260200160405190810160405280929190818152602001828054600181600116156101000203166002900480156106445780601f1061061957610100808354040283529160200191610644565b820191906000526020600020905b81548152906001019060200180831161062757829003601f168201915b50505050509250818054600181600116156101000203166002900480601f0160208091040260200160405190810160405280929190818152602001828054600181600116156101000203166002900480156106e05780601f106106b5576101008083540402835291602001916106e0565b820191906000526020600020905b8154815290600101906020018083116106c357829003601f168201915b505050505091509250925092509193909250565b6106fc610812565b84816000018190525083816020018190525082816040018190525081816060019015159081151581525050806001866040518082805190602001908083835b6020831061075e578051825260208201915060208101905060208303925061073b565b6001836020036101000a038019825116818451168082178552505050505050905001915050908152602001604051809103902060008201518160000190805190602001906107ad92919061083c565b5060208201518160010190805190602001906107ca92919061083c565b5060408201518160020190805190602001906107e792919061083c565b5060608201518160030160006101000a81548160ff0219169083151502179055509050505050505050565b60405180608001604052806060815260200160608152602001606081526020016000151581525090565b828054600181600116156101000203166002900490600052602060002090601f016020900481019282601f1061087d57805160ff19168380011785556108ab565b828001600101855582156108ab579182015b828111156108aa57825182559160200191906001019061088f565b5b5090506108b891906108bc565b5090565b6108de91905b808211156108da5760008160009055506001016108c2565b5090565b9056fea165627a7a72305820f6cf35016b2e6e1e42125d6c4ab81fa2b2e9f96b8b2d42ec4e272e97d9a94ad30029",
  "source": "pragma solidity ^0.5.6;\n\ncontract Verification {\n    address admin;\n\n    constructor() public {\n        admin = msg.sender;\n    }\n\n    struct DiD {\n        string phoneNumberHash;\n        string licenseNumber;\n        string licenseType;\n        bool isAdult;\n    }\n\n    mapping(string => DiD) phoneNumber_DiD;\n\n    function registerLicense(string memory _phoneNumberHash, string memory _licenseNumber, string memory _licenseType, bool _isAdult) public {\n        DiD memory newDiD;\n        newDiD.phoneNumberHash = _phoneNumberHash;\n        newDiD.licenseNumber = _licenseNumber;\n        newDiD.licenseType = _licenseType;\n        newDiD.isAdult = _isAdult;\n\n        phoneNumber_DiD[_phoneNumberHash] = newDiD;\n    }\n\n    function getLicense(string memory _phoneNumberHash) public view returns (string memory, string memory, bool) {\n        require(bytes(phoneNumber_DiD[_phoneNumberHash].licenseNumber).length > 0, \"Invalid licenseNumber\");\n\n        return (phoneNumber_DiD[_phoneNumberHash].licenseNumber, phoneNumber_DiD[_phoneNumberHash].licenseType, true);\n    }\n}",
  "sourcePath": "/Users/kimtaehyung/ididit-backend/contracts/Verificatoin.sol",
  "compiler": {
    "name": "solc",
    "version": "0.5.8+commit.23d335f2.Emscripten.clang"
  },
  "schemaVersion": "3.0.17",
  "updatedAt": "2019-11-08T08:53:25.678Z",
  "devdoc": {
    "methods": {}
  },
  "userdoc": {
    "methods": {}
  }
}